{
    "_format": "hh-sol-artifact-1",
    "contractName": "Transactions",
    "sourceName": "contracts/Transactions.sol",
    "abi": [
        {
            "anonymous": false,
            "inputs": [
                {
                    "indexed": false,
                    "internalType": "address",
                    "name": "from",
                    "type": "address"
                },
                {
                    "indexed": false,
                    "internalType": "address",
                    "name": "receiver",
                    "type": "address"
                },
                {
                    "indexed": false,
                    "internalType": "uint256",
                    "name": "amount",
                    "type": "uint256"
                },
                {
                    "indexed": false,
                    "internalType": "string",
                    "name": "message",
                    "type": "string"
                },
                {
                    "indexed": false,
                    "internalType": "uint256",
                    "name": "timestamp",
                    "type": "uint256"
                },
                {
                    "indexed": false,
                    "internalType": "string",
                    "name": "account",
                    "type": "string"
                },
                {
                    "indexed": false,
                    "internalType": "string",
                    "name": "keyword",
                    "type": "string"
                }
            ],
            "name": "Transfer",
            "type": "event"
        },
        {
            "inputs": [],
            "name": "getAllTransactions",
            "outputs": [
                {
                    "components": [
                        {
                            "internalType": "address",
                            "name": "sender",
                            "type": "address"
                        },
                        {
                            "internalType": "address",
                            "name": "receiver",
                            "type": "address"
                        },
                        {
                            "internalType": "uint256",
                            "name": "amount",
                            "type": "uint256"
                        },
                        {
                            "internalType": "string",
                            "name": "message",
                            "type": "string"
                        },
                        {
                            "internalType": "uint256",
                            "name": "timestamp",
                            "type": "uint256"
                        },
                        {
                            "internalType": "string",
                            "name": "account",
                            "type": "string"
                        },
                        {
                            "internalType": "string",
                            "name": "keyword",
                            "type": "string"
                        }
                    ],
                    "internalType": "struct Transactions.TransferStruct[]",
                    "name": "",
                    "type": "tuple[]"
                }
            ],
            "stateMutability": "view",
            "type": "function"
        },
        {
            "inputs": [],
            "name": "getTransactionCount",
            "outputs": [
                {
                    "internalType": "uint256",
                    "name": "",
                    "type": "uint256"
                }
            ],
            "stateMutability": "view",
            "type": "function"
        },
        {
            "inputs": [
                {
                    "internalType": "address payable",
                    "name": "receiver",
                    "type": "address"
                },
                {
                    "internalType": "uint256",
                    "name": "amount",
                    "type": "uint256"
                },
                {
                    "internalType": "string",
                    "name": "message",
                    "type": "string"
                },
                {
                    "internalType": "string",
                    "name": "account",
                    "type": "string"
                },
                {
                    "internalType": "string",
                    "name": "keyword",
                    "type": "string"
                }
            ],
            "name": "transfer",
            "outputs": [],
            "stateMutability": "nonpayable",
            "type": "function"
        }
    ],
    "bytecode": "0x608060405234801561001057600080fd5b50610e67806100206000396000f3fe608060405234801561001057600080fd5b50600436106100415760003560e01c806327506f53146100465780632e7700f014610064578063754091e714610082575b600080fd5b61004e61009e565b60405161005b9190610ae8565b60405180910390f35b61006c610373565b6040516100799190610b2a565b60405180910390f35b61009c60048036038101906100979190610746565b61037c565b005b60606001805480602002602001604051908101604052809291908181526020016000905b8282101561036a57838290600052602060002090600702016040518060e00160405290816000820160009054906101000a900473ffffffffffffffffffffffffffffffffffffffff1673ffffffffffffffffffffffffffffffffffffffff1673ffffffffffffffffffffffffffffffffffffffff1681526020016001820160009054906101000a900473ffffffffffffffffffffffffffffffffffffffff1673ffffffffffffffffffffffffffffffffffffffff1673ffffffffffffffffffffffffffffffffffffffff168152602001600282015481526020016003820180546101ab90610d33565b80601f01602080910402602001604051908101604052809291908181526020018280546101d790610d33565b80156102245780601f106101f957610100808354040283529160200191610224565b820191906000526020600020905b81548152906001019060200180831161020757829003601f168201915b505050505081526020016004820154815260200160058201805461024790610d33565b80601f016020809104026020016040519081016040528092919081815260200182805461027390610d33565b80156102c05780601f10610295576101008083540402835291602001916102c0565b820191906000526020600020905b8154815290600101906020018083116102a357829003601f168201915b505050505081526020016006820180546102d990610d33565b80601f016020809104026020016040519081016040528092919081815260200182805461030590610d33565b80156103525780601f1061032757610100808354040283529160200191610352565b820191906000526020600020905b81548152906001019060200180831161033557829003601f168201915b505050505081525050815260200190600101906100c2565b50505050905090565b60008054905090565b600160008082825461038e9190610c17565b9250508190555060016040518060e001604052803373ffffffffffffffffffffffffffffffffffffffff1681526020018773ffffffffffffffffffffffffffffffffffffffff16815260200186815260200185815260200142815260200184815260200183815250908060018154018082558091505060019003906000526020600020906007020160009091909190915060008201518160000160006101000a81548173ffffffffffffffffffffffffffffffffffffffff021916908373ffffffffffffffffffffffffffffffffffffffff16021790555060208201518160010160006101000a81548173ffffffffffffffffffffffffffffffffffffffff021916908373ffffffffffffffffffffffffffffffffffffffff1602179055506040820151816002015560608201518160030190805190602001906104d3929190610611565b506080820151816004015560a08201518160050190805190602001906104fa929190610611565b5060c0820151816006019080519060200190610517929190610611565b5050507f21ec5b3f3e6c597e1a0d1650e5545618667a89bf7d7341cc53e38673d3dede32338686864287876040516105559796959493929190610a64565b60405180910390a160008573ffffffffffffffffffffffffffffffffffffffff168560405161058390610a4f565b60006040518083038185875af1925050503d80600081146105c0576040519150601f19603f3d011682016040523d82523d6000602084013e6105c5565b606091505b5050905080610609576040517f08c379a000000000000000000000000000000000000000000000000000000000815260040161060090610b0a565b60405180910390fd5b505050505050565b82805461061d90610d33565b90600052602060002090601f01602090048101928261063f5760008555610686565b82601f1061065857805160ff1916838001178555610686565b82800160010185558215610686579182015b8281111561068557825182559160200191906001019061066a565b5b5090506106939190610697565b5090565b5b808211156106b0576000816000905550600101610698565b5090565b60006106c76106c284610b76565b610b45565b9050828152602081018484840111156106df57600080fd5b6106ea848285610cf1565b509392505050565b60008135905061070181610e03565b92915050565b600082601f83011261071857600080fd5b81356107288482602086016106b4565b91505092915050565b60008135905061074081610e1a565b92915050565b600080600080600060a0868803121561075e57600080fd5b600061076c888289016106f2565b955050602061077d88828901610731565b945050604086013567ffffffffffffffff81111561079a57600080fd5b6107a688828901610707565b935050606086013567ffffffffffffffff8111156107c357600080fd5b6107cf88828901610707565b925050608086013567ffffffffffffffff8111156107ec57600080fd5b6107f888828901610707565b9150509295509295909350565b60006108118383610987565b905092915050565b61082281610cbb565b82525050565b61083181610c6d565b82525050565b61084081610c6d565b82525050565b600061085182610bb6565b61085b8185610bd9565b93508360208202850161086d85610ba6565b8060005b858110156108a9578484038952815161088a8582610805565b945061089583610bcc565b925060208a01995050600181019050610871565b50829750879550505050505092915050565b60006108c682610bc1565b6108d08185610bf5565b93506108e0818560208601610d00565b6108e981610df2565b840191505092915050565b60006108ff82610bc1565b6109098185610c06565b9350610919818560208601610d00565b61092281610df2565b840191505092915050565b600061093a600083610bea565b9150600082019050919050565b6000610954601083610c06565b91507f5472616e73666572206661696c65642e000000000000000000000000000000006000830152602082019050919050565b600060e08301600083015161099f6000860182610828565b5060208301516109b26020860182610828565b5060408301516109c56040860182610a31565b50606083015184820360608601526109dd82826108bb565b91505060808301516109f26080860182610a31565b5060a083015184820360a0860152610a0a82826108bb565b91505060c083015184820360c0860152610a2482826108bb565b9150508091505092915050565b610a3a81610cb1565b82525050565b610a4981610cb1565b82525050565b6000610a5a8261092d565b9150819050919050565b600060e082019050610a79600083018a610837565b610a866020830189610819565b610a936040830188610a40565b8181036060830152610aa581876108f4565b9050610ab46080830186610a40565b81810360a0830152610ac681856108f4565b905081810360c0830152610ada81846108f4565b905098975050505050505050565b60006020820190508181036000830152610b028184610846565b905092915050565b60006020820190508181036000830152610b2381610947565b9050919050565b6000602082019050610b3f6000830184610a40565b92915050565b6000604051905081810181811067ffffffffffffffff82111715610b6c57610b6b610dc3565b5b8060405250919050565b600067ffffffffffffffff821115610b9157610b90610dc3565b5b601f19601f8301169050602081019050919050565b6000819050602082019050919050565b600081519050919050565b600081519050919050565b6000602082019050919050565b600082825260208201905092915050565b600081905092915050565b600082825260208201905092915050565b600082825260208201905092915050565b6000610c2282610cb1565b9150610c2d83610cb1565b9250827fffffffffffffffffffffffffffffffffffffffffffffffffffffffffffffffff03821115610c6257610c61610d65565b5b828201905092915050565b6000610c7882610c91565b9050919050565b6000610c8a82610c91565b9050919050565b600073ffffffffffffffffffffffffffffffffffffffff82169050919050565b6000819050919050565b6000610cc682610ccd565b9050919050565b6000610cd882610cdf565b9050919050565b6000610cea82610c91565b9050919050565b82818337600083830152505050565b60005b83811015610d1e578082015181840152602081019050610d03565b83811115610d2d576000848401525b50505050565b60006002820490506001821680610d4b57607f821691505b60208210811415610d5f57610d5e610d94565b5b50919050565b7f4e487b7100000000000000000000000000000000000000000000000000000000600052601160045260246000fd5b7f4e487b7100000000000000000000000000000000000000000000000000000000600052602260045260246000fd5b7f4e487b7100000000000000000000000000000000000000000000000000000000600052604160045260246000fd5b6000601f19601f8301169050919050565b610e0c81610c7f565b8114610e1757600080fd5b50565b610e2381610cb1565b8114610e2e57600080fd5b5056fea2646970667358221220b214c264d36b1d88ca948d2d97f51f8c489377dfa31b7ee3f9f41d3dfeeb1b7064736f6c63430008000033",
    "linkReferences": {},
    "deployedLinkReferences": {}
}